{
  "contractName": "MintIdentity",
  "abi": [
    {
      "inputs": [],
      "stateMutability": "nonpayable",
      "type": "constructor"
    },
    {
      "anonymous": false,
      "inputs": [
        {
          "indexed": true,
          "internalType": "address",
          "name": "owner",
          "type": "address"
        },
        {
          "indexed": true,
          "internalType": "address",
          "name": "approved",
          "type": "address"
        },
        {
          "indexed": true,
          "internalType": "uint256",
          "name": "tokenId",
          "type": "uint256"
        }
      ],
      "name": "Approval",
      "type": "event"
    },
    {
      "anonymous": false,
      "inputs": [
        {
          "indexed": true,
          "internalType": "address",
          "name": "owner",
          "type": "address"
        },
        {
          "indexed": true,
          "internalType": "address",
          "name": "operator",
          "type": "address"
        },
        {
          "indexed": false,
          "internalType": "bool",
          "name": "approved",
          "type": "bool"
        }
      ],
      "name": "ApprovalForAll",
      "type": "event"
    },
    {
      "anonymous": false,
      "inputs": [
        {
          "indexed": true,
          "internalType": "address",
          "name": "previousOwner",
          "type": "address"
        },
        {
          "indexed": true,
          "internalType": "address",
          "name": "newOwner",
          "type": "address"
        }
      ],
      "name": "OwnershipTransferred",
      "type": "event"
    },
    {
      "anonymous": false,
      "inputs": [
        {
          "indexed": true,
          "internalType": "address",
          "name": "from",
          "type": "address"
        },
        {
          "indexed": true,
          "internalType": "address",
          "name": "to",
          "type": "address"
        },
        {
          "indexed": true,
          "internalType": "uint256",
          "name": "tokenId",
          "type": "uint256"
        }
      ],
      "name": "Transfer",
      "type": "event"
    },
    {
      "inputs": [
        {
          "internalType": "address",
          "name": "to",
          "type": "address"
        },
        {
          "internalType": "uint256",
          "name": "tokenId",
          "type": "uint256"
        }
      ],
      "name": "approve",
      "outputs": [],
      "stateMutability": "nonpayable",
      "type": "function"
    },
    {
      "inputs": [
        {
          "internalType": "address",
          "name": "owner",
          "type": "address"
        }
      ],
      "name": "balanceOf",
      "outputs": [
        {
          "internalType": "uint256",
          "name": "",
          "type": "uint256"
        }
      ],
      "stateMutability": "view",
      "type": "function",
      "constant": true
    },
    {
      "inputs": [
        {
          "internalType": "uint256",
          "name": "tokenId",
          "type": "uint256"
        }
      ],
      "name": "getApproved",
      "outputs": [
        {
          "internalType": "address",
          "name": "",
          "type": "address"
        }
      ],
      "stateMutability": "view",
      "type": "function",
      "constant": true
    },
    {
      "inputs": [
        {
          "internalType": "address",
          "name": "owner",
          "type": "address"
        },
        {
          "internalType": "address",
          "name": "operator",
          "type": "address"
        }
      ],
      "name": "isApprovedForAll",
      "outputs": [
        {
          "internalType": "bool",
          "name": "",
          "type": "bool"
        }
      ],
      "stateMutability": "view",
      "type": "function",
      "constant": true
    },
    {
      "inputs": [],
      "name": "name",
      "outputs": [
        {
          "internalType": "string",
          "name": "",
          "type": "string"
        }
      ],
      "stateMutability": "view",
      "type": "function",
      "constant": true
    },
    {
      "inputs": [],
      "name": "owner",
      "outputs": [
        {
          "internalType": "address",
          "name": "",
          "type": "address"
        }
      ],
      "stateMutability": "view",
      "type": "function",
      "constant": true
    },
    {
      "inputs": [
        {
          "internalType": "uint256",
          "name": "tokenId",
          "type": "uint256"
        }
      ],
      "name": "ownerOf",
      "outputs": [
        {
          "internalType": "address",
          "name": "",
          "type": "address"
        }
      ],
      "stateMutability": "view",
      "type": "function",
      "constant": true
    },
    {
      "inputs": [],
      "name": "renounceOwnership",
      "outputs": [],
      "stateMutability": "nonpayable",
      "type": "function"
    },
    {
      "inputs": [
        {
          "internalType": "address",
          "name": "from",
          "type": "address"
        },
        {
          "internalType": "address",
          "name": "to",
          "type": "address"
        },
        {
          "internalType": "uint256",
          "name": "tokenId",
          "type": "uint256"
        }
      ],
      "name": "safeTransferFrom",
      "outputs": [],
      "stateMutability": "nonpayable",
      "type": "function"
    },
    {
      "inputs": [
        {
          "internalType": "address",
          "name": "from",
          "type": "address"
        },
        {
          "internalType": "address",
          "name": "to",
          "type": "address"
        },
        {
          "internalType": "uint256",
          "name": "tokenId",
          "type": "uint256"
        },
        {
          "internalType": "bytes",
          "name": "_data",
          "type": "bytes"
        }
      ],
      "name": "safeTransferFrom",
      "outputs": [],
      "stateMutability": "nonpayable",
      "type": "function"
    },
    {
      "inputs": [
        {
          "internalType": "address",
          "name": "operator",
          "type": "address"
        },
        {
          "internalType": "bool",
          "name": "approved",
          "type": "bool"
        }
      ],
      "name": "setApprovalForAll",
      "outputs": [],
      "stateMutability": "nonpayable",
      "type": "function"
    },
    {
      "inputs": [
        {
          "internalType": "bytes4",
          "name": "interfaceId",
          "type": "bytes4"
        }
      ],
      "name": "supportsInterface",
      "outputs": [
        {
          "internalType": "bool",
          "name": "",
          "type": "bool"
        }
      ],
      "stateMutability": "view",
      "type": "function",
      "constant": true
    },
    {
      "inputs": [],
      "name": "symbol",
      "outputs": [
        {
          "internalType": "string",
          "name": "",
          "type": "string"
        }
      ],
      "stateMutability": "view",
      "type": "function",
      "constant": true
    },
    {
      "inputs": [
        {
          "internalType": "uint256",
          "name": "index",
          "type": "uint256"
        }
      ],
      "name": "tokenByIndex",
      "outputs": [
        {
          "internalType": "uint256",
          "name": "",
          "type": "uint256"
        }
      ],
      "stateMutability": "view",
      "type": "function",
      "constant": true
    },
    {
      "inputs": [
        {
          "internalType": "address",
          "name": "owner",
          "type": "address"
        },
        {
          "internalType": "uint256",
          "name": "index",
          "type": "uint256"
        }
      ],
      "name": "tokenOfOwnerByIndex",
      "outputs": [
        {
          "internalType": "uint256",
          "name": "",
          "type": "uint256"
        }
      ],
      "stateMutability": "view",
      "type": "function",
      "constant": true
    },
    {
      "inputs": [
        {
          "internalType": "uint256",
          "name": "tokenId",
          "type": "uint256"
        }
      ],
      "name": "tokenURI",
      "outputs": [
        {
          "internalType": "string",
          "name": "",
          "type": "string"
        }
      ],
      "stateMutability": "view",
      "type": "function",
      "constant": true
    },
    {
      "inputs": [],
      "name": "totalSupply",
      "outputs": [
        {
          "internalType": "uint256",
          "name": "",
          "type": "uint256"
        }
      ],
      "stateMutability": "view",
      "type": "function",
      "constant": true
    },
    {
      "inputs": [
        {
          "internalType": "address",
          "name": "from",
          "type": "address"
        },
        {
          "internalType": "address",
          "name": "to",
          "type": "address"
        },
        {
          "internalType": "uint256",
          "name": "tokenId",
          "type": "uint256"
        }
      ],
      "name": "transferFrom",
      "outputs": [],
      "stateMutability": "nonpayable",
      "type": "function"
    },
    {
      "inputs": [
        {
          "internalType": "address",
          "name": "newOwner",
          "type": "address"
        }
      ],
      "name": "transferOwnership",
      "outputs": [],
      "stateMutability": "nonpayable",
      "type": "function"
    },
    {
      "inputs": [
        {
          "internalType": "string",
          "name": "baseURI",
          "type": "string"
        }
      ],
      "name": "setBaseURI",
      "outputs": [],
      "stateMutability": "nonpayable",
      "type": "function"
    },
    {
      "inputs": [
        {
          "internalType": "uint256",
          "name": "fee",
          "type": "uint256"
        }
      ],
      "name": "setIdentityFee",
      "outputs": [],
      "stateMutability": "nonpayable",
      "type": "function"
    },
    {
      "inputs": [],
      "name": "getIdentityFee",
      "outputs": [
        {
          "internalType": "uint256",
          "name": "",
          "type": "uint256"
        }
      ],
      "stateMutability": "nonpayable",
      "type": "function"
    },
    {
      "inputs": [
        {
          "internalType": "uint256",
          "name": "tokenId",
          "type": "uint256"
        }
      ],
      "name": "getTokenIdentity",
      "outputs": [
        {
          "components": [
            {
              "internalType": "bytes32",
              "name": "uniqueid",
              "type": "bytes32"
            },
            {
              "internalType": "string",
              "name": "name",
              "type": "string"
            },
            {
              "internalType": "string",
              "name": "aka",
              "type": "string"
            },
            {
              "internalType": "string",
              "name": "organization",
              "type": "string"
            },
            {
              "internalType": "string",
              "name": "slogan",
              "type": "string"
            },
            {
              "internalType": "string",
              "name": "description",
              "type": "string"
            },
            {
              "internalType": "string",
              "name": "url",
              "type": "string"
            },
            {
              "internalType": "string",
              "name": "bio",
              "type": "string"
            },
            {
              "internalType": "uint256",
              "name": "created",
              "type": "uint256"
            },
            {
              "internalType": "uint256",
              "name": "lastupdated",
              "type": "uint256"
            },
            {
              "internalType": "bool",
              "name": "valid",
              "type": "bool"
            },
            {
              "internalType": "uint256",
              "name": "validdate",
              "type": "uint256"
            },
            {
              "internalType": "uint256",
              "name": "validationscore",
              "type": "uint256"
            }
          ],
          "internalType": "struct MintIdentity.Identity",
          "name": "ident",
          "type": "tuple"
        }
      ],
      "stateMutability": "view",
      "type": "function",
      "constant": true
    },
    {
      "inputs": [
        {
          "internalType": "string",
          "name": "name",
          "type": "string"
        },
        {
          "internalType": "string",
          "name": "aka",
          "type": "string"
        },
        {
          "internalType": "string",
          "name": "org",
          "type": "string"
        },
        {
          "internalType": "string",
          "name": "slogan",
          "type": "string"
        },
        {
          "internalType": "string",
          "name": "description",
          "type": "string"
        },
        {
          "internalType": "string",
          "name": "url",
          "type": "string"
        },
        {
          "internalType": "string",
          "name": "bio",
          "type": "string"
        }
      ],
      "name": "claimIdentity",
      "outputs": [],
      "stateMutability": "payable",
      "type": "function",
      "payable": true
    },
    {
      "inputs": [
        {
          "internalType": "uint256",
          "name": "tokenId",
          "type": "uint256"
        },
        {
          "internalType": "string",
          "name": "newName",
          "type": "string"
        }
      ],
      "name": "changeName",
      "outputs": [],
      "stateMutability": "nonpayable",
      "type": "function"
    },
    {
      "inputs": [
        {
          "internalType": "uint256",
          "name": "tokenId",
          "type": "uint256"
        },
        {
          "internalType": "string",
          "name": "newAKA",
          "type": "string"
        }
      ],
      "name": "changeAKA",
      "outputs": [],
      "stateMutability": "nonpayable",
      "type": "function"
    },
    {
      "inputs": [
        {
          "internalType": "uint256",
          "name": "tokenId",
          "type": "uint256"
        },
        {
          "internalType": "string",
          "name": "newSlogan",
          "type": "string"
        }
      ],
      "name": "changeSlogan",
      "outputs": [],
      "stateMutability": "nonpayable",
      "type": "function"
    },
    {
      "inputs": [
        {
          "internalType": "uint256",
          "name": "tokenId",
          "type": "uint256"
        },
        {
          "internalType": "string",
          "name": "newDescription",
          "type": "string"
        }
      ],
      "name": "changeDescription",
      "outputs": [],
      "stateMutability": "nonpayable",
      "type": "function"
    },
    {
      "inputs": [
        {
          "internalType": "uint256",
          "name": "tokenId",
          "type": "uint256"
        },
        {
          "internalType": "string",
          "name": "newURL",
          "type": "string"
        }
      ],
      "name": "changeURL",
      "outputs": [],
      "stateMutability": "nonpayable",
      "type": "function"
    },
    {
      "inputs": [
        {
          "internalType": "uint256",
          "name": "tokenId",
          "type": "uint256"
        },
        {
          "internalType": "string",
          "name": "newBio",
          "type": "string"
        }
      ],
      "name": "changeBio",
      "outputs": [],
      "stateMutability": "nonpayable",
      "type": "function"
    }
  ],
  "bytecode": "0x60806040523480156200001157600080fd5b506040518060400160405280600c81526020017f4d696e744964656e7469747900000000000000000000000000000000000000008152506040518060400160405280600581526020017f4944454e54000000000000000000000000000000000000000000000000000000815250816000908051906020019062000096929190620011e9565b508060019080519060200190620000af929190620011e9565b505050620000d2620000c6620003dd60201b60201c565b620003e560201b60201c565b620000fc604051806060016040528060258152602001620065b260259139620004ab60201b60201c565b6200010f6101f46200055660201b60201c565b620002736040518060400160405280600981526020017f416e64726577204e2e00000000000000000000000000000000000000000000008152506040518060400160405280600881526020017f482d7374726565740000000000000000000000000000000000000000000000008152506040518060400160405280600c81526020017f50617065724d61737465727300000000000000000000000000000000000000008152506040518060400160405280600881526020017f4f68205965616821000000000000000000000000000000000000000000000000815250604051806020016040528060008152506040518060400160405280601681526020017f687474703a2f2f72616d6f6e616a656e6e792e636f6d000000000000000000008152506040518060400160405280600881526020017f536f6674776172650000000000000000000000000000000000000000000000008152506200056060201b60201c565b620003d76040518060400160405280600681526020017f52616d6f6e6100000000000000000000000000000000000000000000000000008152506040518060400160405280600b81526020017f72616d6f6e616a656e6e790000000000000000000000000000000000000000008152506040518060400160405280600c81526020017f50617065724d61737465727300000000000000000000000000000000000000008152506040518060400160405280600f81526020017f416c6c207468696e677320576176650000000000000000000000000000000000815250604051806020016040528060008152506040518060400160405280601681526020017f687474703a2f2f72616d6f6e616a656e6e792e636f6d000000000000000000008152506040518060400160405280600881526020017f456e67696e6565720000000000000000000000000000000000000000000000008152506200056060201b60201c565b6200199e565b600033905090565b6000600a60009054906101000a900473ffffffffffffffffffffffffffffffffffffffff16905081600a60006101000a81548173ffffffffffffffffffffffffffffffffffffffff021916908373ffffffffffffffffffffffffffffffffffffffff1602179055508173ffffffffffffffffffffffffffffffffffffffff168173ffffffffffffffffffffffffffffffffffffffff167f8be0079c531659141344cd1fd0a4f28419497f9722a3daafe3b4186f6b6457e060405160405180910390a35050565b620004bb620003dd60201b60201c565b73ffffffffffffffffffffffffffffffffffffffff16620004e16200077d60201b60201c565b73ffffffffffffffffffffffffffffffffffffffff16146200053a576040517f08c379a00000000000000000000000000000000000000000000000000000000081526004016200053190620012fa565b60405180910390fd5b80600d908051906020019062000552929190620011e9565b5050565b80600e8190555050565b60006200057988888888888888620007a760201b60201c565b9050604051806101a00160405280828152602001898152602001888152602001878152602001868152602001858152602001848152602001838152602001428152602001428152602001600015158152602001600081526020016000815250600c6000620005f3600b620007ed60201b62001c571760201c565b815260200190815260200160002060008201518160000155602082015181600101908051906020019062000629929190620011e9565b50604082015181600201908051906020019062000648929190620011e9565b50606082015181600301908051906020019062000667929190620011e9565b50608082015181600401908051906020019062000686929190620011e9565b5060a0820151816005019080519060200190620006a5929190620011e9565b5060c0820151816006019080519060200190620006c4929190620011e9565b5060e0820151816007019080519060200190620006e3929190620011e9565b506101008201518160080155610120820151816009015561014082015181600a0160006101000a81548160ff02191690831515021790555061016082015181600b015561018082015181600c01559050506200075c3362000750600b620007ed60201b62001c571760201c565b620007fb60201b60201c565b62000773600b6200082160201b62001c651760201c565b5050505050505050565b6000600a60009054906101000a900473ffffffffffffffffffffffffffffffffffffffff16905090565b60008787878787878742604051602001620007ca989796959493929190620013ce565b604051602081830303815290604052805190602001209050979650505050505050565b600081600001549050919050565b6200081d8282604051806020016040528060008152506200083760201b60201c565b5050565b6001816000016000828254019250508190555050565b620008498383620008a560201b60201c565b6200085e600084848462000a8b60201b60201c565b620008a0576040517f08c379a00000000000000000000000000000000000000000000000000000000081526004016200089790620014ca565b60405180910390fd5b505050565b600073ffffffffffffffffffffffffffffffffffffffff168273ffffffffffffffffffffffffffffffffffffffff16141562000918576040517f08c379a00000000000000000000000000000000000000000000000000000000081526004016200090f906200153c565b60405180910390fd5b620009298162000c3560201b60201c565b156200096c576040517f08c379a00000000000000000000000000000000000000000000000000000000081526004016200096390620015ae565b60405180910390fd5b620009806000838362000ca160201b60201c565b6001600360008473ffffffffffffffffffffffffffffffffffffffff1673ffffffffffffffffffffffffffffffffffffffff1681526020019081526020016000206000828254620009d29190620015ff565b92505081905550816002600083815260200190815260200160002060006101000a81548173ffffffffffffffffffffffffffffffffffffffff021916908373ffffffffffffffffffffffffffffffffffffffff160217905550808273ffffffffffffffffffffffffffffffffffffffff16600073ffffffffffffffffffffffffffffffffffffffff167fddf252ad1be2c89b69c2b068fc378daa952ba7f163c4a11628f55a4df523b3ef60405160405180910390a45050565b600062000ab98473ffffffffffffffffffffffffffffffffffffffff1662000de860201b62001c7b1760201c565b1562000c28578373ffffffffffffffffffffffffffffffffffffffff1663150b7a0262000aeb620003dd60201b60201c565b8786866040518563ffffffff1660e01b815260040162000b0f949392919062001720565b6020604051808303816000875af192505050801562000b4e57506040513d601f19601f8201168201806040525081019062000b4b9190620017d6565b60015b62000bd7573d806000811462000b81576040519150601f19603f3d011682016040523d82523d6000602084013e62000b86565b606091505b5060008151141562000bcf576040517f08c379a000000000000000000000000000000000000000000000000000000000815260040162000bc690620014ca565b60405180910390fd5b805181602001fd5b63150b7a0260e01b7bffffffffffffffffffffffffffffffffffffffffffffffffffffffff1916817bffffffffffffffffffffffffffffffffffffffffffffffffffffffff19161491505062000c2d565b600190505b949350505050565b60008073ffffffffffffffffffffffffffffffffffffffff166002600084815260200190815260200160002060009054906101000a900473ffffffffffffffffffffffffffffffffffffffff1673ffffffffffffffffffffffffffffffffffffffff1614159050919050565b62000cb983838362000dfb60201b62001c8e1760201c565b600073ffffffffffffffffffffffffffffffffffffffff168373ffffffffffffffffffffffffffffffffffffffff16141562000d065762000d008162000e0060201b60201c565b62000d4e565b8173ffffffffffffffffffffffffffffffffffffffff168373ffffffffffffffffffffffffffffffffffffffff161462000d4d5762000d4c838262000e4960201b60201c565b5b5b600073ffffffffffffffffffffffffffffffffffffffff168273ffffffffffffffffffffffffffffffffffffffff16141562000d9b5762000d958162000fc660201b60201c565b62000de3565b8273ffffffffffffffffffffffffffffffffffffffff168273ffffffffffffffffffffffffffffffffffffffff161462000de25762000de18282620010a260201b60201c565b5b5b505050565b600080823b905060008111915050919050565b505050565b6008805490506009600083815260200190815260200160002081905550600881908060018154018082558091505060019003906000526020600020016000909190919091505550565b6000600162000e63846200112e60201b62000ead1760201c565b62000e6f919062001808565b905060006007600084815260200190815260200160002054905081811462000f55576000600660008673ffffffffffffffffffffffffffffffffffffffff1673ffffffffffffffffffffffffffffffffffffffff168152602001908152602001600020600084815260200190815260200160002054905080600660008773ffffffffffffffffffffffffffffffffffffffff1673ffffffffffffffffffffffffffffffffffffffff168152602001908152602001600020600084815260200190815260200160002081905550816007600083815260200190815260200160002081905550505b6007600084815260200190815260200160002060009055600660008573ffffffffffffffffffffffffffffffffffffffff1673ffffffffffffffffffffffffffffffffffffffff16815260200190815260200160002060008381526020019081526020016000206000905550505050565b6000600160088054905062000fdc919062001808565b90506000600960008481526020019081526020016000205490506000600883815481106200100f576200100e62001843565b5b90600052602060002001549050806008838154811062001034576200103362001843565b5b90600052602060002001819055508160096000838152602001908152602001600020819055506009600085815260200190815260200160002060009055600880548062001086576200108562001872565b5b6001900381819060005260206000200160009055905550505050565b6000620010ba836200112e60201b62000ead1760201c565b905081600660008573ffffffffffffffffffffffffffffffffffffffff1673ffffffffffffffffffffffffffffffffffffffff168152602001908152602001600020600083815260200190815260200160002081905550806007600084815260200190815260200160002081905550505050565b60008073ffffffffffffffffffffffffffffffffffffffff168273ffffffffffffffffffffffffffffffffffffffff161415620011a2576040517f08c379a0000000000000000000000000000000000000000000000000000000008152600401620011999062001917565b60405180910390fd5b600360008373ffffffffffffffffffffffffffffffffffffffff1673ffffffffffffffffffffffffffffffffffffffff168152602001908152602001600020549050919050565b828054620011f79062001968565b90600052602060002090601f0160209004810192826200121b576000855562001267565b82601f106200123657805160ff191683800117855562001267565b8280016001018555821562001267579182015b828111156200126657825182559160200191906001019062001249565b5b5090506200127691906200127a565b5090565b5b80821115620012955760008160009055506001016200127b565b5090565b600082825260208201905092915050565b7f4f776e61626c653a2063616c6c6572206973206e6f7420746865206f776e6572600082015250565b6000620012e260208362001299565b9150620012ef82620012aa565b602082019050919050565b600060208201905081810360008301526200131581620012d3565b9050919050565b600081519050919050565b600081905092915050565b60005b838110156200135257808201518184015260208101905062001335565b8381111562001362576000848401525b50505050565b600062001375826200131c565b62001381818562001327565b93506200139381856020860162001332565b80840191505092915050565b6000819050919050565b6000819050919050565b620013c8620013c2826200139f565b620013a9565b82525050565b6000620013dc828b62001368565b9150620013ea828a62001368565b9150620013f8828962001368565b915062001406828862001368565b915062001414828762001368565b915062001422828662001368565b915062001430828562001368565b91506200143e8284620013b3565b6020820191508190509998505050505050505050565b7f4552433732313a207472616e7366657220746f206e6f6e20455243373231526560008201527f63656976657220696d706c656d656e7465720000000000000000000000000000602082015250565b6000620014b260328362001299565b9150620014bf8262001454565b604082019050919050565b60006020820190508181036000830152620014e581620014a3565b9050919050565b7f4552433732313a206d696e7420746f20746865207a65726f2061646472657373600082015250565b60006200152460208362001299565b91506200153182620014ec565b602082019050919050565b60006020820190508181036000830152620015578162001515565b9050919050565b7f4552433732313a20746f6b656e20616c7265616479206d696e74656400000000600082015250565b600062001596601c8362001299565b9150620015a3826200155e565b602082019050919050565b60006020820190508181036000830152620015c98162001587565b9050919050565b7f4e487b7100000000000000000000000000000000000000000000000000000000600052601160045260246000fd5b60006200160c826200139f565b915062001619836200139f565b9250827fffffffffffffffffffffffffffffffffffffffffffffffffffffffffffffffff03821115620016515762001650620015d0565b5b828201905092915050565b600073ffffffffffffffffffffffffffffffffffffffff82169050919050565b600062001689826200165c565b9050919050565b6200169b816200167c565b82525050565b620016ac816200139f565b82525050565b600081519050919050565b600082825260208201905092915050565b6000601f19601f8301169050919050565b6000620016ec82620016b2565b620016f88185620016bd565b93506200170a81856020860162001332565b6200171581620016ce565b840191505092915050565b600060808201905062001737600083018762001690565b62001746602083018662001690565b620017556040830185620016a1565b8181036060830152620017698184620016df565b905095945050505050565b600080fd5b60007fffffffff0000000000000000000000000000000000000000000000000000000082169050919050565b620017b08162001779565b8114620017bc57600080fd5b50565b600081519050620017d081620017a5565b92915050565b600060208284031215620017ef57620017ee62001774565b5b6000620017ff84828501620017bf565b91505092915050565b600062001815826200139f565b915062001822836200139f565b925082821015620018385762001837620015d0565b5b828203905092915050565b7f4e487b7100000000000000000000000000000000000000000000000000000000600052603260045260246000fd5b7f4e487b7100000000000000000000000000000000000000000000000000000000600052603160045260246000fd5b7f4552433732313a2062616c616e636520717565727920666f7220746865207a6560008201527f726f206164647265737300000000000000000000000000000000000000000000602082015250565b6000620018ff602a8362001299565b91506200190c82620018a1565b604082019050919050565b600060208201905081810360008301526200193281620018f0565b9050919050565b7f4e487b7100000000000000000000000000000000000000000000000000000000600052602260045260246000fd5b600060028204905060018216806200198157607f821691505b6020821081141562001998576200199762001939565b5b50919050565b614c0480620019ae6000396000f3fe6080604052600436106101cd5760003560e01c80637272bf7d116100f7578063b88d4fde11610095578063e985e9c511610064578063e985e9c514610687578063ec048b78146106c4578063f2fde38b146106ed578063f9c1f36f14610716576101cd565b8063b88d4fde146105cf578063c39cbef1146105f8578063c87b56dd14610621578063de6a06ed1461065e576101cd565b80638da5cb5b116100d15780638da5cb5b1461053457806395d89b411461055f5780639b4f90ff1461058a578063a22cb465146105a6576101cd565b80637272bf7d146104a357806373b286bb146104e05780638ae2373014610509576101cd565b806342842e0e1161016f5780636352211e1161013e5780636352211e146103e957806365bd71f41461042657806370a082311461044f578063715018a61461048c576101cd565b806342842e0e146103315780634d4265281461035a5780634f6ccce71461038357806355f804b3146103c0576101cd565b8063095ea7b3116101ab578063095ea7b31461027757806318160ddd146102a057806323b872dd146102cb5780632f745c59146102f4576101cd565b806301ffc9a7146101d257806306fdde031461020f578063081812fc1461023a575b600080fd5b3480156101de57600080fd5b506101f960048036038101906101f49190613249565b61073f565b6040516102069190613291565b60405180910390f35b34801561021b57600080fd5b506102246107b9565b6040516102319190613345565b60405180910390f35b34801561024657600080fd5b50610261600480360381019061025c919061339d565b61084b565b60405161026e919061340b565b60405180910390f35b34801561028357600080fd5b5061029e60048036038101906102999190613452565b6108d0565b005b3480156102ac57600080fd5b506102b56109e8565b6040516102c291906134a1565b60405180910390f35b3480156102d757600080fd5b506102f260048036038101906102ed91906134bc565b6109f5565b005b34801561030057600080fd5b5061031b60048036038101906103169190613452565b610a55565b60405161032891906134a1565b60405180910390f35b34801561033d57600080fd5b50610358600480360381019061035391906134bc565b610afa565b005b34801561036657600080fd5b50610381600480360381019061037c9190613644565b610b1a565b005b34801561038f57600080fd5b506103aa60048036038101906103a5919061339d565b610c07565b6040516103b791906134a1565b60405180910390f35b3480156103cc57600080fd5b506103e760048036038101906103e291906136a0565b610c78565b005b3480156103f557600080fd5b50610410600480360381019061040b919061339d565b610d0e565b60405161041d919061340b565b60405180910390f35b34801561043257600080fd5b5061044d60048036038101906104489190613644565b610dc0565b005b34801561045b57600080fd5b50610476600480360381019061047191906136e9565b610ead565b60405161048391906134a1565b60405180910390f35b34801561049857600080fd5b506104a1610f65565b005b3480156104af57600080fd5b506104ca60048036038101906104c5919061339d565b610fed565b6040516104d791906138da565b60405180910390f35b3480156104ec57600080fd5b5061050760048036038101906105029190613644565b611466565b005b34801561051557600080fd5b5061051e611553565b60405161052b91906134a1565b60405180910390f35b34801561054057600080fd5b5061054961155d565b604051610556919061340b565b60405180910390f35b34801561056b57600080fd5b50610574611587565b6040516105819190613345565b60405180910390f35b6105a4600480360381019061059f91906138fc565b611619565b005b3480156105b257600080fd5b506105cd60048036038101906105c89190613a8e565b6116db565b005b3480156105db57600080fd5b506105f660048036038101906105f19190613b6f565b6116f1565b005b34801561060457600080fd5b5061061f600480360381019061061a9190613644565b611753565b005b34801561062d57600080fd5b506106486004803603810190610643919061339d565b611840565b6040516106559190613345565b60405180910390f35b34801561066a57600080fd5b5061068560048036038101906106809190613644565b6118e7565b005b34801561069357600080fd5b506106ae60048036038101906106a99190613bf2565b6119d4565b6040516106bb9190613291565b60405180910390f35b3480156106d057600080fd5b506106eb60048036038101906106e69190613644565b611a68565b005b3480156106f957600080fd5b50610714600480360381019061070f91906136e9565b611b55565b005b34801561072257600080fd5b5061073d6004803603810190610738919061339d565b611c4d565b005b60007f780e9d63000000000000000000000000000000000000000000000000000000007bffffffffffffffffffffffffffffffffffffffffffffffffffffffff1916827bffffffffffffffffffffffffffffffffffffffffffffffffffffffff191614806107b257506107b182611c93565b5b9050919050565b6060600080546107c890613c61565b80601f01602080910402602001604051908101604052809291908181526020018280546107f490613c61565b80156108415780601f1061081657610100808354040283529160200191610841565b820191906000526020600020905b81548152906001019060200180831161082457829003601f168201915b5050505050905090565b600061085682611d75565b610895576040517f08c379a000000000000000000000000000000000000000000000000000000000815260040161088c90613d05565b60405180910390fd5b6004600083815260200190815260200160002060009054906101000a900473ffffffffffffffffffffffffffffffffffffffff169050919050565b60006108db82610d0e565b90508073ffffffffffffffffffffffffffffffffffffffff168373ffffffffffffffffffffffffffffffffffffffff16141561094c576040517f08c379a000000000000000000000000000000000000000000000000000000000815260040161094390613d97565b60405180910390fd5b8073ffffffffffffffffffffffffffffffffffffffff1661096b611de1565b73ffffffffffffffffffffffffffffffffffffffff16148061099a575061099981610994611de1565b6119d4565b5b6109d9576040517f08c379a00000000000000000000000000000000000000000000000000000000081526004016109d090613e29565b60405180910390fd5b6109e38383611de9565b505050565b6000600880549050905090565b610a06610a00611de1565b82611ea2565b610a45576040517f08c379a0000000000000000000000000000000000000000000000000000000008152600401610a3c90613ebb565b60405180910390fd5b610a50838383611f80565b505050565b6000610a6083610ead565b8210610aa1576040517f08c379a0000000000000000000000000000000000000000000000000000000008152600401610a9890613f4d565b60405180910390fd5b600660008473ffffffffffffffffffffffffffffffffffffffff1673ffffffffffffffffffffffffffffffffffffffff168152602001908152602001600020600083815260200190815260200160002054905092915050565b610b15838383604051806020016040528060008152506116f1565b505050565b610b2382611d75565b610b62576040517f08c379a0000000000000000000000000000000000000000000000000000000008152600401610b5990613fb9565b60405180910390fd5b3373ffffffffffffffffffffffffffffffffffffffff16610b8283610d0e565b73ffffffffffffffffffffffffffffffffffffffff1614610bd8576040517f08c379a0000000000000000000000000000000000000000000000000000000008152600401610bcf9061404b565b60405180910390fd5b80600c60008481526020019081526020016000206007019080519060200190610c029291906130cd565b505050565b6000610c116109e8565b8210610c52576040517f08c379a0000000000000000000000000000000000000000000000000000000008152600401610c49906140dd565b60405180910390fd5b60088281548110610c6657610c656140fd565b5b90600052602060002001549050919050565b610c80611de1565b73ffffffffffffffffffffffffffffffffffffffff16610c9e61155d565b73ffffffffffffffffffffffffffffffffffffffff1614610cf4576040517f08c379a0000000000000000000000000000000000000000000000000000000008152600401610ceb90614178565b60405180910390fd5b80600d9080519060200190610d0a9291906130cd565b5050565b6000806002600084815260200190815260200160002060009054906101000a900473ffffffffffffffffffffffffffffffffffffffff169050600073ffffffffffffffffffffffffffffffffffffffff168173ffffffffffffffffffffffffffffffffffffffff161415610db7576040517f08c379a0000000000000000000000000000000000000000000000000000000008152600401610dae9061420a565b60405180910390fd5b80915050919050565b610dc982611d75565b610e08576040517f08c379a0000000000000000000000000000000000000000000000000000000008152600401610dff90613fb9565b60405180910390fd5b3373ffffffffffffffffffffffffffffffffffffffff16610e2883610d0e565b73ffffffffffffffffffffffffffffffffffffffff1614610e7e576040517f08c379a0000000000000000000000000000000000000000000000000000000008152600401610e759061404b565b60405180910390fd5b80600c60008481526020019081526020016000206002019080519060200190610ea89291906130cd565b505050565b60008073ffffffffffffffffffffffffffffffffffffffff168273ffffffffffffffffffffffffffffffffffffffff161415610f1e576040517f08c379a0000000000000000000000000000000000000000000000000000000008152600401610f159061429c565b60405180910390fd5b600360008373ffffffffffffffffffffffffffffffffffffffff1673ffffffffffffffffffffffffffffffffffffffff168152602001908152602001600020549050919050565b610f6d611de1565b73ffffffffffffffffffffffffffffffffffffffff16610f8b61155d565b73ffffffffffffffffffffffffffffffffffffffff1614610fe1576040517f08c379a0000000000000000000000000000000000000000000000000000000008152600401610fd890614178565b60405180910390fd5b610feb60006121dc565b565b610ff5613153565b600c6000838152602001908152602001600020604051806101a00160405290816000820154815260200160018201805461102e90613c61565b80601f016020809104026020016040519081016040528092919081815260200182805461105a90613c61565b80156110a75780601f1061107c576101008083540402835291602001916110a7565b820191906000526020600020905b81548152906001019060200180831161108a57829003601f168201915b505050505081526020016002820180546110c090613c61565b80601f01602080910402602001604051908101604052809291908181526020018280546110ec90613c61565b80156111395780601f1061110e57610100808354040283529160200191611139565b820191906000526020600020905b81548152906001019060200180831161111c57829003601f168201915b5050505050815260200160038201805461115290613c61565b80601f016020809104026020016040519081016040528092919081815260200182805461117e90613c61565b80156111cb5780601f106111a0576101008083540402835291602001916111cb565b820191906000526020600020905b8154815290600101906020018083116111ae57829003601f168201915b505050505081526020016004820180546111e490613c61565b80601f016020809104026020016040519081016040528092919081815260200182805461121090613c61565b801561125d5780601f106112325761010080835404028352916020019161125d565b820191906000526020600020905b81548152906001019060200180831161124057829003601f168201915b5050505050815260200160058201805461127690613c61565b80601f01602080910402602001604051908101604052809291908181526020018280546112a290613c61565b80156112ef5780601f106112c4576101008083540402835291602001916112ef565b820191906000526020600020905b8154815290600101906020018083116112d257829003601f168201915b5050505050815260200160068201805461130890613c61565b80601f016020809104026020016040519081016040528092919081815260200182805461133490613c61565b80156113815780601f1061135657610100808354040283529160200191611381565b820191906000526020600020905b81548152906001019060200180831161136457829003601f168201915b5050505050815260200160078201805461139a90613c61565b80601f01602080910402602001604051908101604052809291908181526020018280546113c690613c61565b80156114135780601f106113e857610100808354040283529160200191611413565b820191906000526020600020905b8154815290600101906020018083116113f657829003601f168201915b505050505081526020016008820154815260200160098201548152602001600a820160009054906101000a900460ff16151515158152602001600b8201548152602001600c820154815250509050919050565b61146f82611d75565b6114ae576040517f08c379a00000000000000000000000000000000000000000000000000000000081526004016114a590613fb9565b60405180910390fd5b3373ffffffffffffffffffffffffffffffffffffffff166114ce83610d0e565b73ffffffffffffffffffffffffffffffffffffffff1614611524576040517f08c379a000000000000000000000000000000000000000000000000000000000815260040161151b9061404b565b60405180910390fd5b80600c6000848152602001908152602001600020600601908051906020019061154e9291906130cd565b505050565b6000600e54905090565b6000600a60009054906101000a900473ffffffffffffffffffffffffffffffffffffffff16905090565b60606001805461159690613c61565b80601f01602080910402602001604051908101604052809291908181526020018280546115c290613c61565b801561160f5780601f106115e45761010080835404028352916020019161160f565b820191906000526020600020905b8154815290600101906020018083116115f257829003601f168201915b5050505050905090565b600066038d7ea4c68000600e5461163091906142eb565b9050803414611674576040517f08c379a000000000000000000000000000000000000000000000000000000000815260040161166b90614391565b60405180910390fd5b611683888888888888886122a2565b61168b61155d565b73ffffffffffffffffffffffffffffffffffffffff166108fc829081150290604051600060405180830381858888f193505050501580156116d0573d6000803e3d6000fd5b505050505050505050565b6116ed6116e6611de1565b838361247a565b5050565b6117026116fc611de1565b83611ea2565b611741576040517f08c379a000000000000000000000000000000000000000000000000000000000815260040161173890613ebb565b60405180910390fd5b61174d848484846125e7565b50505050565b61175c82611d75565b61179b576040517f08c379a000000000000000000000000000000000000000000000000000000000815260040161179290613fb9565b60405180910390fd5b3373ffffffffffffffffffffffffffffffffffffffff166117bb83610d0e565b73ffffffffffffffffffffffffffffffffffffffff1614611811576040517f08c379a00000000000000000000000000000000000000000000000000000000081526004016118089061404b565b60405180910390fd5b80600c6000848152602001908152602001600020600101908051906020019061183b9291906130cd565b505050565b606061184b82611d75565b61188a576040517f08c379a000000000000000000000000000000000000000000000000000000000815260040161188190614423565b60405180910390fd5b6000611894612643565b905060008151116118b457604051806020016040528060008152506118df565b806118be846126d5565b6040516020016118cf92919061447f565b6040516020818303038152906040525b915050919050565b6118f082611d75565b61192f576040517f08c379a000000000000000000000000000000000000000000000000000000000815260040161192690613fb9565b60405180910390fd5b3373ffffffffffffffffffffffffffffffffffffffff1661194f83610d0e565b73ffffffffffffffffffffffffffffffffffffffff16146119a5576040517f08c379a000000000000000000000000000000000000000000000000000000000815260040161199c9061404b565b60405180910390fd5b80600c600084815260200190815260200160002060050190805190602001906119cf9291906130cd565b505050565b6000600560008473ffffffffffffffffffffffffffffffffffffffff1673ffffffffffffffffffffffffffffffffffffffff16815260200190815260200160002060008373ffffffffffffffffffffffffffffffffffffffff1673ffffffffffffffffffffffffffffffffffffffff16815260200190815260200160002060009054906101000a900460ff16905092915050565b611a7182611d75565b611ab0576040517f08c379a0000000000000000000000000000000000000000000000000000000008152600401611aa790613fb9565b60405180910390fd5b3373ffffffffffffffffffffffffffffffffffffffff16611ad083610d0e565b73ffffffffffffffffffffffffffffffffffffffff1614611b26576040517f08c379a0000000000000000000000000000000000000000000000000000000008152600401611b1d9061404b565b60405180910390fd5b80600c60008481526020019081526020016000206004019080519060200190611b509291906130cd565b505050565b611b5d611de1565b73ffffffffffffffffffffffffffffffffffffffff16611b7b61155d565b73ffffffffffffffffffffffffffffffffffffffff1614611bd1576040517f08c379a0000000000000000000000000000000000000000000000000000000008152600401611bc890614178565b60405180910390fd5b600073ffffffffffffffffffffffffffffffffffffffff168173ffffffffffffffffffffffffffffffffffffffff161415611c41576040517f08c379a0000000000000000000000000000000000000000000000000000000008152600401611c3890614515565b60405180910390fd5b611c4a816121dc565b50565b80600e8190555050565b600081600001549050919050565b6001816000016000828254019250508190555050565b600080823b905060008111915050919050565b505050565b60007f80ac58cd000000000000000000000000000000000000000000000000000000007bffffffffffffffffffffffffffffffffffffffffffffffffffffffff1916827bffffffffffffffffffffffffffffffffffffffffffffffffffffffff19161480611d5e57507f5b5e139f000000000000000000000000000000000000000000000000000000007bffffffffffffffffffffffffffffffffffffffffffffffffffffffff1916827bffffffffffffffffffffffffffffffffffffffffffffffffffffffff1916145b80611d6e5750611d6d82612836565b5b9050919050565b60008073ffffffffffffffffffffffffffffffffffffffff166002600084815260200190815260200160002060009054906101000a900473ffffffffffffffffffffffffffffffffffffffff1673ffffffffffffffffffffffffffffffffffffffff1614159050919050565b600033905090565b816004600083815260200190815260200160002060006101000a81548173ffffffffffffffffffffffffffffffffffffffff021916908373ffffffffffffffffffffffffffffffffffffffff160217905550808273ffffffffffffffffffffffffffffffffffffffff16611e5c83610d0e565b73ffffffffffffffffffffffffffffffffffffffff167f8c5be1e5ebec7d5bd14f71427d1e84f3dd0314c0f7b2291e5b200ac8c7c3b92560405160405180910390a45050565b6000611ead82611d75565b611eec576040517f08c379a0000000000000000000000000000000000000000000000000000000008152600401611ee3906145a7565b60405180910390fd5b6000611ef783610d0e565b90508073ffffffffffffffffffffffffffffffffffffffff168473ffffffffffffffffffffffffffffffffffffffff161480611f6657508373ffffffffffffffffffffffffffffffffffffffff16611f4e8461084b565b73ffffffffffffffffffffffffffffffffffffffff16145b80611f775750611f7681856119d4565b5b91505092915050565b8273ffffffffffffffffffffffffffffffffffffffff16611fa082610d0e565b73ffffffffffffffffffffffffffffffffffffffff1614611ff6576040517f08c379a0000000000000000000000000000000000000000000000000000000008152600401611fed90614639565b60405180910390fd5b600073ffffffffffffffffffffffffffffffffffffffff168273ffffffffffffffffffffffffffffffffffffffff161415612066576040517f08c379a000000000000000000000000000000000000000000000000000000000815260040161205d906146cb565b60405180910390fd5b6120718383836128a0565b61207c600082611de9565b6001600360008573ffffffffffffffffffffffffffffffffffffffff1673ffffffffffffffffffffffffffffffffffffffff16815260200190815260200160002060008282546120cc91906146eb565b925050819055506001600360008473ffffffffffffffffffffffffffffffffffffffff1673ffffffffffffffffffffffffffffffffffffffff1681526020019081526020016000206000828254612123919061471f565b92505081905550816002600083815260200190815260200160002060006101000a81548173ffffffffffffffffffffffffffffffffffffffff021916908373ffffffffffffffffffffffffffffffffffffffff160217905550808273ffffffffffffffffffffffffffffffffffffffff168473ffffffffffffffffffffffffffffffffffffffff167fddf252ad1be2c89b69c2b068fc378daa952ba7f163c4a11628f55a4df523b3ef60405160405180910390a4505050565b6000600a60009054906101000a900473ffffffffffffffffffffffffffffffffffffffff16905081600a60006101000a81548173ffffffffffffffffffffffffffffffffffffffff021916908373ffffffffffffffffffffffffffffffffffffffff1602179055508173ffffffffffffffffffffffffffffffffffffffff168173ffffffffffffffffffffffffffffffffffffffff167f8be0079c531659141344cd1fd0a4f28419497f9722a3daafe3b4186f6b6457e060405160405180910390a35050565b60006122b3888888888888886129b4565b9050604051806101a00160405280828152602001898152602001888152602001878152602001868152602001858152602001848152602001838152602001428152602001428152602001600015158152602001600081526020016000815250600c6000612320600b611c57565b81526020019081526020016000206000820151816000015560208201518160010190805190602001906123549291906130cd565b5060408201518160020190805190602001906123719291906130cd565b50606082015181600301908051906020019061238e9291906130cd565b5060808201518160040190805190602001906123ab9291906130cd565b5060a08201518160050190805190602001906123c89291906130cd565b5060c08201518160060190805190602001906123e59291906130cd565b5060e08201518160070190805190602001906124029291906130cd565b506101008201518160080155610120820151816009015561014082015181600a0160006101000a81548160ff02191690831515021790555061016082015181600b015561018082015181600c015590505061246633612461600b611c57565b6129f8565b612470600b611c65565b5050505050505050565b8173ffffffffffffffffffffffffffffffffffffffff168373ffffffffffffffffffffffffffffffffffffffff1614156124e9576040517f08c379a00000000000000000000000000000000000000000000000000000000081526004016124e0906147c1565b60405180910390fd5b80600560008573ffffffffffffffffffffffffffffffffffffffff1673ffffffffffffffffffffffffffffffffffffffff16815260200190815260200160002060008473ffffffffffffffffffffffffffffffffffffffff1673ffffffffffffffffffffffffffffffffffffffff16815260200190815260200160002060006101000a81548160ff0219169083151502179055508173ffffffffffffffffffffffffffffffffffffffff168373ffffffffffffffffffffffffffffffffffffffff167f17307eab39ab6107e8899845ad3d59bd9653f200f220920489ca2b5937696c31836040516125da9190613291565b60405180910390a3505050565b6125f2848484611f80565b6125fe84848484612a16565b61263d576040517f08c379a000000000000000000000000000000000000000000000000000000000815260040161263490614853565b60405180910390fd5b50505050565b6060600d805461265290613c61565b80601f016020809104026020016040519081016040528092919081815260200182805461267e90613c61565b80156126cb5780601f106126a0576101008083540402835291602001916126cb565b820191906000526020600020905b8154815290600101906020018083116126ae57829003601f168201915b5050505050905090565b6060600082141561271d576040518060400160405280600181526020017f30000000000000000000000000000000000000000000000000000000000000008152509050612831565b600082905060005b6000821461274f57808061273890614873565b915050600a8261274891906148eb565b9150612725565b60008167ffffffffffffffff81111561276b5761276a613519565b5b6040519080825280601f01601f19166020018201604052801561279d5781602001600182028036833780820191505090505b5090505b6000851461282a576001826127b691906146eb565b9150600a856127c5919061491c565b60306127d1919061471f565b60f81b8183815181106127e7576127e66140fd565b5b60200101907effffffffffffffffffffffffffffffffffffffffffffffffffffffffffffff1916908160001a905350600a8561282391906148eb565b94506127a1565b8093505050505b919050565b60007f01ffc9a7000000000000000000000000000000000000000000000000000000007bffffffffffffffffffffffffffffffffffffffffffffffffffffffff1916827bffffffffffffffffffffffffffffffffffffffffffffffffffffffff1916149050919050565b6128ab838383611c8e565b600073ffffffffffffffffffffffffffffffffffffffff168373ffffffffffffffffffffffffffffffffffffffff1614156128ee576128e981612b9e565b61292d565b8173ffffffffffffffffffffffffffffffffffffffff168373ffffffffffffffffffffffffffffffffffffffff161461292c5761292b8382612be7565b5b5b600073ffffffffffffffffffffffffffffffffffffffff168273ffffffffffffffffffffffffffffffffffffffff1614156129705761296b81612d54565b6129af565b8273ffffffffffffffffffffffffffffffffffffffff168273ffffffffffffffffffffffffffffffffffffffff16146129ae576129ad8282612e25565b5b5b505050565b600087878787878787426040516020016129d598979695949392919061496e565b604051602081830303815290604052805190602001209050979650505050505050565b612a12828260405180602001604052806000815250612ea4565b5050565b6000612a378473ffffffffffffffffffffffffffffffffffffffff16611c7b565b15612b91578373ffffffffffffffffffffffffffffffffffffffff1663150b7a02612a60611de1565b8786866040518563ffffffff1660e01b8152600401612a829493929190614a39565b6020604051808303816000875af1925050508015612abe57506040513d601f19601f82011682018060405250810190612abb9190614a9a565b60015b612b41573d8060008114612aee576040519150601f19603f3d011682016040523d82523d6000602084013e612af3565b606091505b50600081511415612b39576040517f08c379a0000000000000000000000000000000000000000000000000000000008152600401612b3090614853565b60405180910390fd5b805181602001fd5b63150b7a0260e01b7bffffffffffffffffffffffffffffffffffffffffffffffffffffffff1916817bffffffffffffffffffffffffffffffffffffffffffffffffffffffff191614915050612b96565b600190505b949350505050565b6008805490506009600083815260200190815260200160002081905550600881908060018154018082558091505060019003906000526020600020016000909190919091505550565b60006001612bf484610ead565b612bfe91906146eb565b9050600060076000848152602001908152602001600020549050818114612ce3576000600660008673ffffffffffffffffffffffffffffffffffffffff1673ffffffffffffffffffffffffffffffffffffffff168152602001908152602001600020600084815260200190815260200160002054905080600660008773ffffffffffffffffffffffffffffffffffffffff1673ffffffffffffffffffffffffffffffffffffffff168152602001908152602001600020600084815260200190815260200160002081905550816007600083815260200190815260200160002081905550505b6007600084815260200190815260200160002060009055600660008573ffffffffffffffffffffffffffffffffffffffff1673ffffffffffffffffffffffffffffffffffffffff16815260200190815260200160002060008381526020019081526020016000206000905550505050565b60006001600880549050612d6891906146eb565b9050600060096000848152602001908152602001600020549050600060088381548110612d9857612d976140fd565b5b906000526020600020015490508060088381548110612dba57612db96140fd565b5b906000526020600020018190555081600960008381526020019081526020016000208190555060096000858152602001908152602001600020600090556008805480612e0957612e08614ac7565b5b6001900381819060005260206000200160009055905550505050565b6000612e3083610ead565b905081600660008573ffffffffffffffffffffffffffffffffffffffff1673ffffffffffffffffffffffffffffffffffffffff168152602001908152602001600020600083815260200190815260200160002081905550806007600084815260200190815260200160002081905550505050565b612eae8383612eff565b612ebb6000848484612a16565b612efa576040517f08c379a0000000000000000000000000000000000000000000000000000000008152600401612ef190614853565b60405180910390fd5b505050565b600073ffffffffffffffffffffffffffffffffffffffff168273ffffffffffffffffffffffffffffffffffffffff161415612f6f576040517f08c379a0000000000000000000000000000000000000000000000000000000008152600401612f6690614b42565b60405180910390fd5b612f7881611d75565b15612fb8576040517f08c379a0000000000000000000000000000000000000000000000000000000008152600401612faf90614bae565b60405180910390fd5b612fc4600083836128a0565b6001600360008473ffffffffffffffffffffffffffffffffffffffff1673ffffffffffffffffffffffffffffffffffffffff1681526020019081526020016000206000828254613014919061471f565b92505081905550816002600083815260200190815260200160002060006101000a81548173ffffffffffffffffffffffffffffffffffffffff021916908373ffffffffffffffffffffffffffffffffffffffff160217905550808273ffffffffffffffffffffffffffffffffffffffff16600073ffffffffffffffffffffffffffffffffffffffff167fddf252ad1be2c89b69c2b068fc378daa952ba7f163c4a11628f55a4df523b3ef60405160405180910390a45050565b8280546130d990613c61565b90600052602060002090601f0160209004810192826130fb5760008555613142565b82601f1061311457805160ff1916838001178555613142565b82800160010185558215613142579182015b82811115613141578251825591602001919060010190613126565b5b50905061314f91906131c0565b5090565b604051806101a001604052806000801916815260200160608152602001606081526020016060815260200160608152602001606081526020016060815260200160608152602001600081526020016000815260200160001515815260200160008152602001600081525090565b5b808211156131d95760008160009055506001016131c1565b5090565b6000604051905090565b600080fd5b600080fd5b60007fffffffff0000000000000000000000000000000000000000000000000000000082169050919050565b613226816131f1565b811461323157600080fd5b50565b6000813590506132438161321d565b92915050565b60006020828403121561325f5761325e6131e7565b5b600061326d84828501613234565b91505092915050565b60008115159050919050565b61328b81613276565b82525050565b60006020820190506132a66000830184613282565b92915050565b600081519050919050565b600082825260208201905092915050565b60005b838110156132e65780820151818401526020810190506132cb565b838111156132f5576000848401525b50505050565b6000601f19601f8301169050919050565b6000613317826132ac565b61332181856132b7565b93506133318185602086016132c8565b61333a816132fb565b840191505092915050565b6000602082019050818103600083015261335f818461330c565b905092915050565b6000819050919050565b61337a81613367565b811461338557600080fd5b50565b60008135905061339781613371565b92915050565b6000602082840312156133b3576133b26131e7565b5b60006133c184828501613388565b91505092915050565b600073ffffffffffffffffffffffffffffffffffffffff82169050919050565b60006133f5826133ca565b9050919050565b613405816133ea565b82525050565b600060208201905061342060008301846133fc565b92915050565b61342f816133ea565b811461343a57600080fd5b50565b60008135905061344c81613426565b92915050565b60008060408385031215613469576134686131e7565b5b60006134778582860161343d565b925050602061348885828601613388565b9150509250929050565b61349b81613367565b82525050565b60006020820190506134b66000830184613492565b92915050565b6000806000606084860312156134d5576134d46131e7565b5b60006134e38682870161343d565b93505060206134f48682870161343d565b925050604061350586828701613388565b9150509250925092565b600080fd5b600080fd5b7f4e487b7100000000000000000000000000000000000000000000000000000000600052604160045260246000fd5b613551826132fb565b810181811067ffffffffffffffff821117156135705761356f613519565b5b80604052505050565b60006135836131dd565b905061358f8282613548565b919050565b600067ffffffffffffffff8211156135af576135ae613519565b5b6135b8826132fb565b9050602081019050919050565b82818337600083830152505050565b60006135e76135e284613594565b613579565b90508281526020810184848401111561360357613602613514565b5b61360e8482856135c5565b509392505050565b600082601f83011261362b5761362a61350f565b5b813561363b8482602086016135d4565b91505092915050565b6000806040838503121561365b5761365a6131e7565b5b600061366985828601613388565b925050602083013567ffffffffffffffff81111561368a576136896131ec565b5b61369685828601613616565b9150509250929050565b6000602082840312156136b6576136b56131e7565b5b600082013567ffffffffffffffff8111156136d4576136d36131ec565b5b6136e084828501613616565b91505092915050565b6000602082840312156136ff576136fe6131e7565b5b600061370d8482850161343d565b91505092915050565b6000819050919050565b61372981613716565b82525050565b600082825260208201905092915050565b600061374b826132ac565b613755818561372f565b93506137658185602086016132c8565b61376e816132fb565b840191505092915050565b61378281613367565b82525050565b61379181613276565b82525050565b60006101a0830160008301516137b06000860182613720565b50602083015184820360208601526137c88282613740565b915050604083015184820360408601526137e28282613740565b915050606083015184820360608601526137fc8282613740565b915050608083015184820360808601526138168282613740565b91505060a083015184820360a08601526138308282613740565b91505060c083015184820360c086015261384a8282613740565b91505060e083015184820360e08601526138648282613740565b91505061010083015161387b610100860182613779565b50610120830151613890610120860182613779565b506101408301516138a5610140860182613788565b506101608301516138ba610160860182613779565b506101808301516138cf610180860182613779565b508091505092915050565b600060208201905081810360008301526138f48184613797565b905092915050565b600080600080600080600060e0888a03121561391b5761391a6131e7565b5b600088013567ffffffffffffffff811115613939576139386131ec565b5b6139458a828b01613616565b975050602088013567ffffffffffffffff811115613966576139656131ec565b5b6139728a828b01613616565b965050604088013567ffffffffffffffff811115613993576139926131ec565b5b61399f8a828b01613616565b955050606088013567ffffffffffffffff8111156139c0576139bf6131ec565b5b6139cc8a828b01613616565b945050608088013567ffffffffffffffff8111156139ed576139ec6131ec565b5b6139f98a828b01613616565b93505060a088013567ffffffffffffffff811115613a1a57613a196131ec565b5b613a268a828b01613616565b92505060c088013567ffffffffffffffff811115613a4757613a466131ec565b5b613a538a828b01613616565b91505092959891949750929550565b613a6b81613276565b8114613a7657600080fd5b50565b600081359050613a8881613a62565b92915050565b60008060408385031215613aa557613aa46131e7565b5b6000613ab38582860161343d565b9250506020613ac485828601613a79565b9150509250929050565b600067ffffffffffffffff821115613ae957613ae8613519565b5b613af2826132fb565b9050602081019050919050565b6000613b12613b0d84613ace565b613579565b905082815260208101848484011115613b2e57613b2d613514565b5b613b398482856135c5565b509392505050565b600082601f830112613b5657613b5561350f565b5b8135613b66848260208601613aff565b91505092915050565b60008060008060808587031215613b8957613b886131e7565b5b6000613b978782880161343d565b9450506020613ba88782880161343d565b9350506040613bb987828801613388565b925050606085013567ffffffffffffffff811115613bda57613bd96131ec565b5b613be687828801613b41565b91505092959194509250565b60008060408385031215613c0957613c086131e7565b5b6000613c178582860161343d565b9250506020613c288582860161343d565b9150509250929050565b7f4e487b7100000000000000000000000000000000000000000000000000000000600052602260045260246000fd5b60006002820490506001821680613c7957607f821691505b60208210811415613c8d57613c8c613c32565b5b50919050565b7f4552433732313a20617070726f76656420717565727920666f72206e6f6e657860008201527f697374656e7420746f6b656e0000000000000000000000000000000000000000602082015250565b6000613cef602c836132b7565b9150613cfa82613c93565b604082019050919050565b60006020820190508181036000830152613d1e81613ce2565b9050919050565b7f4552433732313a20617070726f76616c20746f2063757272656e74206f776e6560008201527f7200000000000000000000000000000000000000000000000000000000000000602082015250565b6000613d816021836132b7565b9150613d8c82613d25565b604082019050919050565b60006020820190508181036000830152613db081613d74565b9050919050565b7f4552433732313a20617070726f76652063616c6c6572206973206e6f74206f7760008201527f6e6572206e6f7220617070726f76656420666f7220616c6c0000000000000000602082015250565b6000613e136038836132b7565b9150613e1e82613db7565b604082019050919050565b60006020820190508181036000830152613e4281613e06565b9050919050565b7f4552433732313a207472616e736665722063616c6c6572206973206e6f74206f60008201527f776e6572206e6f7220617070726f766564000000000000000000000000000000602082015250565b6000613ea56031836132b7565b9150613eb082613e49565b604082019050919050565b60006020820190508181036000830152613ed481613e98565b9050919050565b7f455243373231456e756d657261626c653a206f776e657220696e646578206f7560008201527f74206f6620626f756e6473000000000000000000000000000000000000000000602082015250565b6000613f37602b836132b7565b9150613f4282613edb565b604082019050919050565b60006020820190508181036000830152613f6681613f2a565b9050919050565b7f746f6b656e206e6f74206d696e74656400000000000000000000000000000000600082015250565b6000613fa36010836132b7565b9150613fae82613f6d565b602082019050919050565b60006020820190508181036000830152613fd281613f96565b9050919050565b7f6f6e6c7920746865206f776e6572206f66207468697320756e6971756520494460008201527f2063616e206368616e676520697473207469746c650000000000000000000000602082015250565b60006140356035836132b7565b915061404082613fd9565b604082019050919050565b6000602082019050818103600083015261406481614028565b9050919050565b7f455243373231456e756d657261626c653a20676c6f62616c20696e646578206f60008201527f7574206f6620626f756e64730000000000000000000000000000000000000000602082015250565b60006140c7602c836132b7565b91506140d28261406b565b604082019050919050565b600060208201905081810360008301526140f6816140ba565b9050919050565b7f4e487b7100000000000000000000000000000000000000000000000000000000600052603260045260246000fd5b7f4f776e61626c653a2063616c6c6572206973206e6f7420746865206f776e6572600082015250565b60006141626020836132b7565b915061416d8261412c565b602082019050919050565b6000602082019050818103600083015261419181614155565b9050919050565b7f4552433732313a206f776e657220717565727920666f72206e6f6e657869737460008201527f656e7420746f6b656e0000000000000000000000000000000000000000000000602082015250565b60006141f46029836132b7565b91506141ff82614198565b604082019050919050565b60006020820190508181036000830152614223816141e7565b9050919050565b7f4552433732313a2062616c616e636520717565727920666f7220746865207a6560008201527f726f206164647265737300000000000000000000000000000000000000000000602082015250565b6000614286602a836132b7565b91506142918261422a565b604082019050919050565b600060208201905081810360008301526142b581614279565b9050919050565b7f4e487b7100000000000000000000000000000000000000000000000000000000600052601160045260246000fd5b60006142f682613367565b915061430183613367565b9250817fffffffffffffffffffffffffffffffffffffffffffffffffffffffffffffffff048311821515161561433a576143396142bc565b5b828202905092915050565b7f636c61696d696e672061206964656e7469747920636f7374732066696e6e6579600082015250565b600061437b6020836132b7565b915061438682614345565b602082019050919050565b600060208201905081810360008301526143aa8161436e565b9050919050565b7f4552433732314d657461646174613a2055524920717565727920666f72206e6f60008201527f6e6578697374656e7420746f6b656e0000000000000000000000000000000000602082015250565b600061440d602f836132b7565b9150614418826143b1565b604082019050919050565b6000602082019050818103600083015261443c81614400565b9050919050565b600081905092915050565b6000614459826132ac565b6144638185614443565b93506144738185602086016132c8565b80840191505092915050565b600061448b828561444e565b9150614497828461444e565b91508190509392505050565b7f4f776e61626c653a206e6577206f776e657220697320746865207a65726f206160008201527f6464726573730000000000000000000000000000000000000000000000000000602082015250565b60006144ff6026836132b7565b915061450a826144a3565b604082019050919050565b6000602082019050818103600083015261452e816144f2565b9050919050565b7f4552433732313a206f70657261746f7220717565727920666f72206e6f6e657860008201527f697374656e7420746f6b656e0000000000000000000000000000000000000000602082015250565b6000614591602c836132b7565b915061459c82614535565b604082019050919050565b600060208201905081810360008301526145c081614584565b9050919050565b7f4552433732313a207472616e73666572206f6620746f6b656e2074686174206960008201527f73206e6f74206f776e0000000000000000000000000000000000000000000000602082015250565b60006146236029836132b7565b915061462e826145c7565b604082019050919050565b6000602082019050818103600083015261465281614616565b9050919050565b7f4552433732313a207472616e7366657220746f20746865207a65726f2061646460008201527f7265737300000000000000000000000000000000000000000000000000000000602082015250565b60006146b56024836132b7565b91506146c082614659565b604082019050919050565b600060208201905081810360008301526146e4816146a8565b9050919050565b60006146f682613367565b915061470183613367565b925082821015614714576147136142bc565b5b828203905092915050565b600061472a82613367565b915061473583613367565b9250827fffffffffffffffffffffffffffffffffffffffffffffffffffffffffffffffff0382111561476a576147696142bc565b5b828201905092915050565b7f4552433732313a20617070726f766520746f2063616c6c657200000000000000600082015250565b60006147ab6019836132b7565b91506147b682614775565b602082019050919050565b600060208201905081810360008301526147da8161479e565b9050919050565b7f4552433732313a207472616e7366657220746f206e6f6e20455243373231526560008201527f63656976657220696d706c656d656e7465720000000000000000000000000000602082015250565b600061483d6032836132b7565b9150614848826147e1565b604082019050919050565b6000602082019050818103600083015261486c81614830565b9050919050565b600061487e82613367565b91507fffffffffffffffffffffffffffffffffffffffffffffffffffffffffffffffff8214156148b1576148b06142bc565b5b600182019050919050565b7f4e487b7100000000000000000000000000000000000000000000000000000000600052601260045260246000fd5b60006148f682613367565b915061490183613367565b925082614911576149106148bc565b5b828204905092915050565b600061492782613367565b915061493283613367565b925082614942576149416148bc565b5b828206905092915050565b6000819050919050565b61496861496382613367565b61494d565b82525050565b600061497a828b61444e565b9150614986828a61444e565b9150614992828961444e565b915061499e828861444e565b91506149aa828761444e565b91506149b6828661444e565b91506149c2828561444e565b91506149ce8284614957565b6020820191508190509998505050505050505050565b600081519050919050565b600082825260208201905092915050565b6000614a0b826149e4565b614a1581856149ef565b9350614a258185602086016132c8565b614a2e816132fb565b840191505092915050565b6000608082019050614a4e60008301876133fc565b614a5b60208301866133fc565b614a686040830185613492565b8181036060830152614a7a8184614a00565b905095945050505050565b600081519050614a948161321d565b92915050565b600060208284031215614ab057614aaf6131e7565b5b6000614abe84828501614a85565b91505092915050565b7f4e487b7100000000000000000000000000000000000000000000000000000000600052603160045260246000fd5b7f4552433732313a206d696e7420746f20746865207a65726f2061646472657373600082015250565b6000614b2c6020836132b7565b9150614b3782614af6565b602082019050919050565b60006020820190508181036000830152614b5b81614b1f565b9050919050565b7f4552433732313a20746f6b656e20616c7265616479206d696e74656400000000600082015250565b6000614b98601c836132b7565b9150614ba382614b62565b602082019050919050565b60006020820190508181036000830152614bc781614b8b565b905091905056fea26469706673582212204842dc4fc08d2505ecf457162987f5a3cb4efa5b5fe9945f8a94dd303a1a4b3b64736f6c634300080a003368747470733a2f2f70617065726d6173746572732e696f2f6d696e746964656e746974792f",
  "immutableReferences": {},
  "source": "// SPDX-License-Identifier: MIT\r\npragma solidity >=0.4.22 <0.9.0;\r\n\r\nimport \"@openzeppelin/contracts/access/Ownable.sol\";\r\nimport \"@openzeppelin/contracts/token/ERC721/ERC721.sol\";\r\nimport \"@openzeppelin/contracts/token/ERC721/extensions/ERC721Enumerable.sol\";\r\nimport \"@openzeppelin/contracts/access/AccessControl.sol\";\r\nimport \"@openzeppelin/contracts/utils/Counters.sol\";\r\n\r\ncontract MintIdentity is ERC721Enumerable, Ownable {\r\n    using Counters for Counters.Counter;\r\n    Counters.Counter private _tokenIds;\r\n\r\n    struct Identity {\r\n        bytes32 uniqueid;\r\n        string name;\r\n        string aka;\r\n        string organization;\r\n        string slogan;\r\n        string description;\r\n        string url;\r\n        string bio;\r\n        uint created;\r\n        uint lastupdated;\r\n        bool valid;\r\n        uint validdate;\r\n        uint validationscore;\r\n    }\r\n\r\n    mapping(uint256=> Identity) id_to_identity;\r\n\r\n    string private _currentBaseURI;\r\n    uint private identityFee; // In Finney\r\n    constructor() ERC721(\"MintIdentity\", \"IDENT\") {\r\n        setBaseURI(\"https://papermasters.io/mintidentity/\");\r\n        setIdentityFee(500);\r\n        mintIdentity(\"Andrew N.\",\r\n            \"H-street\",\r\n            \"PaperMasters\",\r\n            \"Oh Yeah!\",\r\n            \"\",\r\n            \"http://ramonajenny.com\",\r\n            \"Software\");\r\n\r\n        mintIdentity(\"Ramona\",\r\n            \"ramonajenny\",\r\n            \"PaperMasters\",\r\n            \"All things Wave\",\r\n            \"\",\r\n            \"http://ramonajenny.com\",\r\n            \"Engineer\");\r\n    }\r\n\r\n    function setBaseURI(string memory baseURI) public onlyOwner() {\r\n        _currentBaseURI = baseURI;\r\n    }\r\n\r\n    function _baseURI() internal view virtual override returns (string memory) {\r\n        return _currentBaseURI;\r\n    }\r\n\r\n    function setIdentityFee(uint fee) public {\r\n        identityFee = fee;\r\n    }\r\n\r\n    function getIdentityFee() public returns (uint) {\r\n        return identityFee;\r\n    }\r\n\r\n    function createUniqueId(\r\n        string memory name,\r\n        string memory aka,\r\n        string memory org,\r\n        string memory slogan,\r\n        string memory description,\r\n        string memory url,\r\n        string memory bio) private view returns(bytes32) {\r\n        return keccak256(abi.encodePacked(name, aka, org, slogan, description, url, bio, block.timestamp));\r\n    }\r\n\r\n    function getTokenIdentity(uint256 tokenId) public view returns(Identity memory ident) {\r\n        ident = id_to_identity[tokenId];\r\n    }\r\n\r\n\r\n    function mintIdentity (\r\n        string memory name,\r\n        string memory aka,\r\n        string memory org,\r\n        string memory slogan,\r\n        string memory description,\r\n        string memory url,\r\n        string memory bio) internal {\r\n            bytes32 uniqueId = createUniqueId(name, aka, org, slogan, description, url, bio);\r\n            id_to_identity[_tokenIds.current()] = Identity(uniqueId,name, aka, org, slogan, description,\r\n                url, bio, block.timestamp, block.timestamp, false, 0, 0);\r\n            _safeMint(msg.sender,_tokenIds.current());\r\n            _tokenIds.increment();\r\n    }\r\n\r\n\r\n    function claimIdentity(\r\n        string memory name,\r\n        string memory aka,\r\n        string memory org,\r\n        string memory slogan,\r\n        string memory description,\r\n        string memory url,\r\n        string memory bio) external payable {\r\n        uint fee = identityFee * 0.001 ether;\r\n        require(msg.value ==  fee, \"claiming a identity costs finney\");\r\n        mintIdentity(name, aka, org, slogan, description, url, bio);\r\n        payable(owner()).transfer(fee);\r\n    }\r\n\r\n    function changeName(uint256 tokenId, string memory newName)  public {\r\n        require(_exists(tokenId), \"token not minted\");\r\n        require(ownerOf(tokenId) == msg.sender, \"only the owner of this unique ID can change its title\");\r\n        id_to_identity[tokenId].name = newName;\r\n\r\n    }\r\n\r\n    function changeAKA(uint256 tokenId, string memory newAKA)  public {\r\n        require(_exists(tokenId), \"token not minted\");\r\n        require(ownerOf(tokenId) == msg.sender, \"only the owner of this unique ID can change its title\");\r\n        id_to_identity[tokenId].aka = newAKA;\r\n\r\n    }\r\n\r\n    function changeSlogan(uint256 tokenId, string memory newSlogan)  public {\r\n        require(_exists(tokenId), \"token not minted\");\r\n        require(ownerOf(tokenId) == msg.sender, \"only the owner of this unique ID can change its title\");\r\n        id_to_identity[tokenId].slogan = newSlogan;\r\n\r\n    }\r\n\r\n    function changeDescription(uint256 tokenId, string memory newDescription)  public {\r\n        require(_exists(tokenId), \"token not minted\");\r\n        require(ownerOf(tokenId) == msg.sender, \"only the owner of this unique ID can change its title\");\r\n        id_to_identity[tokenId].description = newDescription;\r\n\r\n    }\r\n\r\n    function changeURL(uint256 tokenId, string memory newURL)  public {\r\n        require(_exists(tokenId), \"token not minted\");\r\n        require(ownerOf(tokenId) == msg.sender, \"only the owner of this unique ID can change its title\");\r\n        id_to_identity[tokenId].url = newURL;\r\n\r\n        }\r\n\r\n    function changeBio(uint256 tokenId, string memory newBio)  public {\r\n        require(_exists(tokenId), \"token not minted\");\r\n        require(ownerOf(tokenId) == msg.sender, \"only the owner of this unique ID can change its title\");\r\n        id_to_identity[tokenId].bio = newBio;\r\n\r\n    }\r\n\r\n\r\n//changeLastUpdated(tokenId);\r\n    //we need transfer ownership for companies\r\n    //id_to_identity[tokenId].lastupdated = block.timestamp;\r\n\r\n}",
  "sourcePath": "/home/user/MintIdentityTPM/truffle/contracts/MintIdentity.sol",
  "compiler": {
    "name": "solc",
    "version": "0.8.10+commit.fc410830.Emscripten.clang"
  },
  "schemaVersion": "3.4.4",
  "updatedAt": "2022-01-07T03:34:27.124Z",
  "networkType": "ethereum",
  "devdoc": {
    "kind": "dev",
    "methods": {
      "approve(address,uint256)": {
        "details": "See {IERC721-approve}."
      },
      "balanceOf(address)": {
        "details": "See {IERC721-balanceOf}."
      },
      "getApproved(uint256)": {
        "details": "See {IERC721-getApproved}."
      },
      "isApprovedForAll(address,address)": {
        "details": "See {IERC721-isApprovedForAll}."
      },
      "name()": {
        "details": "See {IERC721Metadata-name}."
      },
      "owner()": {
        "details": "Returns the address of the current owner."
      },
      "ownerOf(uint256)": {
        "details": "See {IERC721-ownerOf}."
      },
      "renounceOwnership()": {
        "details": "Leaves the contract without owner. It will not be possible to call `onlyOwner` functions anymore. Can only be called by the current owner. NOTE: Renouncing ownership will leave the contract without an owner, thereby removing any functionality that is only available to the owner."
      },
      "safeTransferFrom(address,address,uint256)": {
        "details": "See {IERC721-safeTransferFrom}."
      },
      "safeTransferFrom(address,address,uint256,bytes)": {
        "details": "See {IERC721-safeTransferFrom}."
      },
      "setApprovalForAll(address,bool)": {
        "details": "See {IERC721-setApprovalForAll}."
      },
      "supportsInterface(bytes4)": {
        "details": "See {IERC165-supportsInterface}."
      },
      "symbol()": {
        "details": "See {IERC721Metadata-symbol}."
      },
      "tokenByIndex(uint256)": {
        "details": "See {IERC721Enumerable-tokenByIndex}."
      },
      "tokenOfOwnerByIndex(address,uint256)": {
        "details": "See {IERC721Enumerable-tokenOfOwnerByIndex}."
      },
      "tokenURI(uint256)": {
        "details": "See {IERC721Metadata-tokenURI}."
      },
      "totalSupply()": {
        "details": "See {IERC721Enumerable-totalSupply}."
      },
      "transferFrom(address,address,uint256)": {
        "details": "See {IERC721-transferFrom}."
      },
      "transferOwnership(address)": {
        "details": "Transfers ownership of the contract to a new account (`newOwner`). Can only be called by the current owner."
      }
    },
    "version": 1
  },
  "userdoc": {
    "kind": "user",
    "methods": {},
    "version": 1
  }
}